:020000020000FC
:20000000004000B4084089140800683A00000000000000000000000000000000000000005D
:20000800DEFFED04DFC00015D8400215D8800315D8C00415D9000515D9400615D98007156A
:20001000D9C00815000B307ADA000915DA400A15DA800B15DAC00C15DB000D15DB400E15C4
:20001800DB800F15DBC01015D9401115EBFFFF04DBC012150009313A2880004C10000326FA
:200020002000022600200FC000000706DF401215E8BFFF17E93FFF0400201C401000021EA2
:20002800EBFFFF04DBC01215D9401117DF401217DFC000172801707AD8400217D880031714
:20003000D8C00417D9000517D9400617D9800717D9C00817DA000917DA400A17DA800B17F2
:20003800DAC00C17DB000D17DB400E17DB800F17DBC01017DEC01304EF80083ADEFFF90429
:20004000DFC00615DF000515DF0005040001883A0005313AE0BFFC15E0BFFC17E0BFFF15BD
:20004800E03FFD1500800044E0BFFE15E0FFFF17E0BFFE171884703A10001126E0BFFD1708
:20005000100690FA008000F41885883A10E98217E0BFFD17100890FA008000F42085883A5B
:2000580010A983171009883A183EE83A0001883A0005313AE0BFFB15E0BFFB170000070642
:20006000E0BFFE171085883AE0BFFE15E0BFFD1710800044E0BFFD15003FE406E0BFFF15AF
:20006800E0BFFF17103FDE1E0001883A0001883AE037883ADFC00117DF000017DEC00204C8
:20007000F800283ADEFFFB04DFC00415DF000315DF000304E13FFD1500BFFFC4E0BFFF153E
:20007800E03FFE15D0A6C01710000726D0A6C017E0FFFF17E1BFFE17E17FFD171809883A5E
:20008000103EE83A00000206003DA03A0005883AE037883ADFC00117DF000017DEC00204E0
:20008800F800283A06C00134DEC00014068000F4D682A014008000B410A9571400C000B4FF
:2000900018E9C21410C00326100000151080010410FFFD360024BA000024D400003FFF066A
:20009800DEFFFC04DFC00315DF000215DF000204E03FFF15E03FFE15010000F421296304CE
:2000A00000204900010000B4211BAF04002228C0E17FFE17010000F42129630400203A8034
:2000A800E13FFE170020D3400100FA0400250700E0BFFF171000031E010000B4211BB40416
:2000B000002228C0E0BFFF1710800044E0BFFF15003FF306DEFFFC04DFC00315DF00021528
:2000B800DF000204E13FFF15E17FFE15E0BFFF17108000581000061EE0FFFE1700BFFFD445
:2000C0001880031E010000F42129630400203DC0E0BFFF171000061EE0FFFE1700BFFFD435
:2000C8001880031E010000F421296304002042000001883AE037883ADFC00117DF0000170E
:2000D000DEC00204F800283ADEFFFE04DFC00115DF000015D839883A017FFFD4010000441F
:2000D80000202D40E037883ADFC00117DF000017DEC00204F800283ADEFFFE04DFC0011563
:2000E000DF000015D839883A017FFFD40009883A00202D40E037883ADFC00117DF00001708
:2000E800DEC00204F800283ADEFFFD04DF000215DF000204E13FFF15E17FFE15E0BFFF17E5
:2000F00010800217E0BFFE150001883AE037883ADF000017DEC00104F800283ADEFFFE0427
:2000F800DF000115DF000104E13FFF15008000B4109BBB04E0FFFF1718800015E0FFFF17A6
:20010000008000F410A96704188002150001883AE037883ADF000017DEC00104F800283A09
:20010800DEFFFE04DF000115DF000104E13FFF15008000B4109BBB04E0FFFF1718800015AB
:200110000001883AE037883ADF000017DEC00104F800283ADEFFFD04DFC00215DF000115B7
:20011800DF000104E13FFF15E13FFF170020420001400404E13FFF1700214B40E037883A13
:20012000DFC00117DF000017DEC00204F800283ADEFFFD04DFC00215DF000115DF000104A7
:20012800E13FFF15E13FFF1700204F40E0BFFF17108002171009883A002080C0E0BFFF1750
:200130001080030310803FCC1004C03A1007883AE0BFFF1710C00105E0BFFF1710800103C3
:20013800E037883ADFC00117DF000017DEC00204F800283ADEFFFE04DF000115DF0001046B
:20014000E13FFF1500C009C40080013410C4982D00FFE0040080013410C498A50080013432
:200148001084982310803FCC1007883AE0BFFF1710C00305E0BFFF1710800303E037883A23
:20015000DF000017DEC00104F800283ADEFFFC04DFC00315DF000215DF000204E13FFF15F9
:20015800E17FFE15E0BFFF17108000581000061EE0FFFE1700BFFFD41880031E010000F40F
:200160002129670400207340E0BFFF171000061EE0FFFE1700BFFFD41880031E010000F4DA
:2001680021296704002079C00001883AE037883ADFC00117DF000017DEC00204F800283A22
:20017000DEFFFE04DFC00115DF000015D839883A017FFFD401000044002054C0E037883A6F
:20017800DFC00117DF000017DEC00204F800283ADEFFFE04DFC00115DF000015D839883A61
:20018000017FFFD40009883A002054C0E037883ADFC00117DF000017DEC00204F800283A89
:20018800DEFFFB04DFC00415DF000315DF000304E13FFD15E0BFFD17E0BFFF15E03FFEC56C
:20019000D0A6B717000B883A1009883A00208940D0A6B717014000441009883A002097001F
:20019800D0A6B717014001041009883A0020B4C01007883AE0BFFF1710C00115D0A6B71796
:2001A000014003041009883A0020B4C01007883AE0BFFF1710C00315D0A6B7170140050484
:2001A8001009883A0020B4C01007883AE0BFFF1710C00515D0A6B717014000441009883AAC
:2001B0000020C440E0BFFEC5E0BFFEC31080004C1007883AE0BFFF1710C00205E0BFFEC3A8
:2001B8001005D07A1080004CE0FFFF1718800405E0BFFEC31005D0BA1080004CE0FFFF1786
:2001C00018800605D0A6B7171009883A00209240E0BFFF1700C0004410C000050001883A1A
:2001C800E037883ADFC00117DF000017DEC00204F800283ADEFFFE04DF000115DF000104DB
:2001D000E13FFF15008000B4109BC404E0FFFF1718800015E0BFFF1710000715E0BFFF17FC
:2001D80000DFFFC410C0090DE0BFFF1710000985E0BFFF17D0A6B715E0FFFF17008000F4CC
:2001E00010A97104188008150001883AE037883ADF000017DEC00104F800283ADEFFFE04AE
:2001E800DF000115DF000104E13FFF15008000B4109BC404E0FFFF17188000150001883ADE
:2001F000E037883ADF000017DEC00104F800283ADEFFFD04DFC00215DF000115DF000104B6
:2001F800E13FFF15E13FFF17002079C001400A04E13FFF1700214B40E037883ADFC0011763
:20020000DF000017DEC00204F800283ADEFFFC04DFC00315DF000215DF000204E13FFF1547
:20020800E0BFFF17D0A6B715E0FFFF17008000F410A9710418800815E13FFF170020CD80F0
:20021000E0BFFF1710800817D8000015100F883A018000B431818804017FFFC4013FFFC4E3
:2002180000247B40000B883AE13FFF170020A000017FFFC4013FFFC4002480400001883A37
:20022000E037883ADFC00117DF000017DEC00204F800283ADEFFFC04DFC00315DF000215B0
:20022800DF000204E13FFF152805883AE0BFFE05E0BFFE0310000726E0BFFF17108009835E
:20023000108004141007883AE0BFFF1710C0098500000706E0BFFF1710C0098300BFFBC47E
:200238001884703A1007883AE0BFFF1710C00985E0BFFF171080098310803FCC100D883A29
:20024000000B883AE13FFF170020C8400001883AE037883ADFC00117DF000017DEC0020486
:20024800F800283ADEFFFD04DFC00215DF000115DF000104E13FFF15E0BFFF1710800983CA
:200250001080081410803FCC100D883A000B883AE13FFF170020C8400001883AE037883AA1
:20025800DFC00117DF000017DEC00204F800283ADEFFFC04DFC00315DF000215DF0002046C
:20026000E13FFF152805883AE0BFFE05E0BFFE0310000726E0BFFF17108009831080005427
:200268001007883AE0BFFF1710C0098500000706E0BFFF1710C0098300BFFF841884703AE4
:200270001007883AE0BFFF1710C00985E0BFFF171080098310803FCC100D883A000B883A6A
:20027800E13FFF170020C8400001883AE037883ADFC00117DF000017DEC00204F800283AC1
:20028000DEFFFC04DFC00315DF000215DF000204E13FFF15E17FFE15E0BFFE17108000E81C
:2002880010002D1E000B883AE13FFF17002089400001883AE0BFFF171080098310800FCC10
:200290001007883AE0BFFF1710C00985E0BFFF17108009831007883AE0BFFE1710803FCC69
:20029800100491BA1884B03A1007883AE0BFFF1710C00985E0BFFF171080098310803FCC09
:2002A000100D883A000B883AE13FFF170020C84001400044E13FFF1700209700E0BFFE170E
:2002A80010000326000B883AE13FFF1700209700E0BFFE1710BFFFC4108000A81000041E93
:2002B00001400044E13FFF1700208940000001060001883A000001060001883AE037883A1D
:2002B800DFC00117DF000017DEC00204F800283ADEFFFC04DFC00315DF000215DF0002040C
:2002C000E13FFE15000B883AE13FFE170020C440E0BFFFC5E0BFFFC31004D1BAE0BFFFC5FF
:2002C800E0BFFFC3108000E81000021EE0BFFFC30000010600BFFFC4E037883ADFC0011793
:2002D000DF000017DEC00204F800283ADEFFFA04DF000515DF000504E13FFC152805883A3E
:2002D800E0BFFB050080013410844004E0BFFF15E0BFFB03E0BFFEC5E03FFD15E0BFFEC397
:2002E00010C00044E0FFFEC510C03FCCE0BFFF171885883A1080002310803FCCE0BFFD155A
:2002E800E0BFFEC310C00044E0FFFEC510C03FCCE0BFFF171885883A1080002310803FCCA3
:2002F0001004923AE0FFFD171884B03AE0BFFD15E0BFFEC310C00044E0FFFEC510C03FCCF3
:2002F800E0BFFF171885883A1080002310803FCC1004943AE0FFFD171884B03AE0BFFD1578
:20030000E0BFFEC310C00044E0FFFEC510C03FCCE0BFFF171885883A1080002310803FCC8A
:200308001004963AE0FFFD171884B03AE0BFFD15E0BFFD17E037883ADF000017DEC00104A2
:20031000F800283ADEFFFD04DF000215DF000204E13FFF152805883AE0BFFE05E0FFFE0315
:2003180000800134108440041885883A1080002310803FCCE037883ADF000017DEC0010419
:20032000F800283ADEFFFC04DF000315DF000304E13FFF152805883A3007883AE0BFFE05EB
:200328001805883AE0BFFD05E0FFFE0300800134108440041885883A1007883AE0BFFD03F1
:20033000188000250001883AE037883ADF000017DEC00104F800283ADEFFFE04DF0001158D
:20033800DF000104E13FFF15E0BFFF1710000115E0BFFF1700CA3D4410C0020DE0BFFF171E
:2003400010000315E0BFFF1700FD70C410C0040DE0BFFF1710000515E0BFFF171000060DF7
:200348000001883AE037883ADF000017DEC00104F800283ADEFFF504DFC00A15DF00091575
:20035000DC000815DF000904E13FF715E0BFF7171080081710C00017E0FFF81510C0011765
:20035800E0FFF91510C00217E0FFFA1510C00317E0FFFB1510C00417E0FFFC1510C0051721
:20036000E0FFFD1510800617E0BFFE15E0BFF80310803FCC10009526E03FF805E0BFF71764
:200368001080071710C000E018004A1E10C001081800851E10C000A01800191E10C000C8AC
:200370001800811E10000326108000601000091E00007D06018A3D4401400204E13FF71752
:2003780000210080E0BFF71700C0004410C0071500007806E0FFF917E0BFF71710C0011527
:2003800001BD70D401400204E13FF71700210080E0BFF71700C0008410C0071500006D06F5
:20038800E0FFF917E0BFF71710C00315E0BFF7171080040B10FFFFCCE0BFF7171080020B61
:2003900010BFFFCC1889C83AE0BFF71710C00317E0BFF717108001171885C83A100B883AA8
:2003980000217E401007883AE0BFF71710C00515E0BFF7171400020BE0BFF71710800517CF
:2003A0001007883AE0BFF71710800117100B883A1809883A002199808085C83A1007883A35
:2003A800E0BFF71710C0060DE0BFF7171080060B10BFFFCC100D883A01400204E13FF71769
:2003B00000210080E0BFF71700C000C410C0071500004006E0BFFA0310803FCC10001026AC
:2003B800E0BFF7171400090BE0BFF9171007883AE0BFF71710800517100B883A1809883AAF
:2003C000002199808085C83A10BFFFCC100D883A01400204E13FF7170021008000002C061B
:2003C800E0BFFC0310803FCC10001226E0BFF7171400090BE0FFFB17E0BFF7171080051775
:2003D000100B883A1809883A00219980017FFD841009883A00217E408085883A10BFFFCCF7
:2003D800100D883A01400204E13FF7170021008000001706E0BFFE0310803FCC100014266E
:2003E000E0BFF7171400090BE0FFFD17E0BFF71710800517100B883A1809883A00219980E2
:2003E800017FE7041009883A00217E408085883A10BFFFCC100D883A01400204E13FF7171B
:2003F00000210080000002060001883A000001060001883A000B883AE13FF7170020970005
:2003F80001400044E13FF717002089400001883AE6FFFF04DFC00217DF000117DC000017FC
:20040000DEC00304F800283ADEFFF704DFC00815DF000715DF000704E13FFE152805883A42
:200408003007883AE0BFFD051805883AE0BFFC0DE0BFFD03E0BFFF45E0BFFC0B1004D23A6B
:20041000E0BFFF85E0BFFC0BE0BFFFC5E0BFFE17E0FFFC0B10C0090DE0BFFF44D80002154F
:20041800D8000115D8000015100F883A018000C4000B883A01000134210480040025D10021
:200420000001883AE037883ADFC00117DF000017DEC00204F800283ADEFFF704DFC00815E1
:20042800DF000715DF000704E13FFE152805883AE1BFFC15E0BFFD05E0FFFD0400800044B7
:20043000D8800215D8000115D8000015180F883A01800044000B883A010001342104800408
:200438000025D100D8000215E0BFFF84D880011500800084D8800015000F883A000D883A1E
:20044000000B883A01000134210480040025D100E0BFFF8310803FCC1004923A1007883A85
:20044800E0BFFFC310803FCC1884B03A1007883AE0BFFC1710C0000D0001883AE037883A0E
:20045000DFC00117DF000017DEC00204F800283ADEFFF804DFC00715DF000615DF0006046A
:20045800E13FFE152805883AE0BFFD0DE0BFFD0B1004D23AE0BFFF85E0BFFD0BE0BFFFC5C5
:20046000E0BFFE17E0FFFD0B10C0090DE0BFFF84D8000215D8000115D8000015100F883A2E
:2004680001800084000B883A01000134210480040025D1000001883AE037883ADFC001177A
:20047000DF000017DEC00204F800283ADEFFFD04DF000215DF000204E13FFF15E17FFE1518
:20047800E0BFFF1710C0090BE0BFFE1710C0000D0001883AE037883ADF000017DEC0010405
:20048000F800283A20800017DEFFFA04DC000415108006173021883A3180001700C004042B
:20048800DFC00515D8000015D8000115D8C00215D8000315D80F883A103EE83AD880011798
:200490001080018C108001981000071ED8C000170080004480C00015DFC00517DC00041757
:20049800DEC00604F800283A0005883ADFC00517DC000417DEC00604F800283AD8C0001718
:2004A0000080004419800126F800283A00800184F800283A008000B4109BDA04208000158D
:2004A80000217801DEFFFE04008000B4DC000015DFC00115109BDA04208000152021883AA0
:2004B00000217800014002048009883ADFC00117DC000017DEC0020400214B41DEFFFA042B
:2004B800DC800415D8800817DC800617DC400315DC000215DFC00515DC400917210001176A
:2004C0003021883A9080122639400117290005262080000710800AA01000061E00222F4036
:2004C8001000041E008000448C8000158C000115888003150005883ADFC00517DC80041742
:2004D000DC400317DC000217DEC00604F800283AD88007171140011729000F2620800007FB
:2004D80010800AA01000091ED9C00115D900001500222F4010000826D9C00117D900001786
:2004E00039400117217FE51E003FE60638800117113FE81E003FE3068C000215003FE50682
:2004E8002100011729400117DEFFFD04DC400115DC000015DFC002153023883A3821883A53
:2004F000214007262080000710800AA01000021E00222F40100002260005883A00000606B1
:2004F800008002048080031500800184808001158440001500800044DFC00217DC400117A2
:20050000DC000017DEC00304F800283ADEFFFB04DC800215DC0000152025883A2821883A97
:200508002100011729400117DFC00415DCC00315DC40011521401526208000073027883A1F
:200510003823883A10800AA01000021E00222F4010000E2689C001283800141E808000177C
:20051800980D883A900B883A108005178009883ADFC00417DCC00317DC800217DC400117EF
:20052000DC000017DEC005041000683A00800044DFC00417DCC00317DC800217DC40011792
:20052800DC000017DEC00504F800283A0005883A003FF70600217E01008000B4109BF20447
:200530002080001500212941DEFFFE04008000B4DC000015DFC00115109BF204208000155C
:200538002021883A00212940014003048009883ADFC00117DC000017DEC0020400214B4188
:20054000DEFFFA04DC800415DC800617DC400315DC000215DFC005152021883A2823883AE2
:2005480091800B2681000217880B883A20800017DC80061510800817DFC00517DC80041753
:20055000DC400317DC000217DEC006041000683A2100011739400117214009262080000705
:2005580010800AA0103FEF1ED9C00115D980001500222F40D9800017D9C00117103FE91EC8
:2005600000800184DFC00517DC800417DC400317DC000217DEC00604F800283ADEFFF50441
:20056800DCC004153880011724C00117DF000915DDC00815DD800715DD400615DC00011598
:20057000DFC00A15DD000515DC800315DC400215DD800B17DF000C17DDC00D17DD400E178B
:200578002821883A988021269D0000072025883A3823883AA0C00AA01800061E100B883A0E
:200580009809883AD980001500222F40D980001710001626B5C02C2691000217880F883A73
:20058800800B883A20800017DD400E15DDC00D15DF000C15DD800B1510800717DFC00A1765
:20059000DF000917DDC00817DD800717DD400617DD000517DCC00417DC800317DC40021780
:20059800DC000117DEC00B041000683AAD800015A980011580001116B421883ABC001D2632
:2005A00000800044A88003150005883ADFC00A17DF000917DDC00817DD800717DD40061740
:2005A800DD000517DCC00417DC800317DC400217DC000117DEC00B04F800283A843FFF9883
:2005B000803FF11E003FEE06E140011799400726A5000AA0A03FD01E9809883AD9800015FE
:2005B80000222F40D9800017103FCB1EA9800215003FE50600800184003FE206DEFFFB0478
:2005C000DCC00315DC800215DC400115DC000015DFC004152025883A2827883A3021883AEE
:2005C8003823883A00213A0010C03FCC18000D1E91000217880F883A800D883A2080001774
:2005D000980B883A10800617DFC00417DCC00317DC800217DC400117DC000017DEC0050446
:2005D8001000683ADFC00417DCC00317DC800217DC400117DC000017DEC00504F800283A44
:2005E000F800283A0005883AF800283A0005883AF800283A0140020400214B412100011732
:2005E8002940011721400C262080000710800AA01000071EDEFFFF04DFC0001500222F40A4
:2005F0001005003ADFC00017DEC00104F800283A0005883AF800283A00800044F800283AAA
:2005F80000219D0120001A16000F883A2800020E014BC83A39C0005C200D883A00C0004435
:200600002900092E0080080400C000440000010610001226294B883A10BFFFC418C7883A32
:20060800293FFB3618000D260005883A31400236314DC83A10C4B03A1806D07A280AD07A5C
:20061000183FFA1E380001260085C83AF800283A0109C83A01C00044003FE4060005883A1A
:20061800003FF80620001916000F883A2005883A2800010E014BC83A00C000442900092E95
:200620000180080400C000440000010630000D26294B883A31BFFFC418C7883A293FFB369C
:20062800180008261806D07A114001361145C83A280AD07A183FFB1E380001260085C83A52
:20063000F800283A2005883A003FFB060109C83A01C00044003FE506200D883A2900152E93
:20063800280014160080080400C000440000020610000E2628000516294B883A10BFFFC469
:2006400018C7883A293FFA36180008260005883A31400236314DC83A10C4B03A1806D07A05
:20064800280AD07A183FFA1EF800283A0005883AF800283A00C00044003FF4062005883A08
:200650002900132E280012160180080400C000440000020630000C2628000516294B883A5C
:2006580031BFFFC418C7883A293FFA36180006261806D07A114001361145C83A280AD07A8E
:20066000183FFB1EF800283A2005883AF800283A00C00044003FF6060005883A200007261C
:2006680020C0004C2008D07A180001261145883A294B883A203FFA1EF800283AF800283A1C
:20067000008000F4200B883A1122AA1700219E01008000F4200B883A1122AA1700228B4112
:20067800DEFFF604DC4001152C4002C4DC800215DFC00915DF000815DDC00715DD800615CA
:20068000DD400515DD000415DCC00315DC000015888005E82025883A10001B1E294004686E
:200688002800821E0024DBC00440040401C000840080060404C000B49CDC13049885883ACA
:200690001400011710FFFE0480C08B26808001178100031700FFFF0410C4703A814002170F
:200698008085883A10C00117290003152140021518C0005410C001159009883A0024DE006B
:2006A0008080020400006C0600BFFE0488A2703A88006616894065360024DBC088807E2858
:2006A800100122268804D27A10006F2610C001681800FE1E8804D1BA11C00E44380890FAEB
:2006B00012000E0404C000B49CDC13049909883A24000117213FFE0424000B2601BFFF04E5
:2006B800000003061800D60E8400031724000626808001171184703A1447C83A1940040816
:2006C000283FF826400F883A9C000417024000B44A5C150482405F2680C0011700BFFF04B7
:2006C8001884703A1447C83A1900041020010A269A4005159A4004151800FF0E10C080286D
:2006D0001800C11E1006D0FA1008D17A0080004418C00044180690FA994001171104983A70
:2006D80098C7883A190000171144B03A197FFE048140031581000215988001151C00001508
:2006E000240003153807D0BA0100004420C8983A110045362086703A18000A1E00FFFF04D8
:2006E8002109883A38CE703A2086703A39C001041800041E2109883A2086703A39C0010494
:2006F000183FFC2602BFFF04381690FA3819883A9AD7883A5811883A408003174080BC26E8
:2006F80010C001171021883A108003171A86703A1C4BC83A298004103000BA26283FF71669
:2007000080C7883A19400117818002179009883A294000541940011530800315118002154E
:200708000024DE00808002040000030600800304908000150005883ADFC00917DF00081790
:20071000DDC00717DD800617DD400517DD000417DCC00317DC800217DC400117DC00001711
:20071800DEC00A04F800283A0100800401C0100402000FC4003F93061400031739C0008409
:20072000143F721E9C000417024000B44A5C1504827FA11E3807D0BA01000044988001176C
:2007280020C8983A113FBB2E9C00021700BFFF0485400117A8AC703AB4400336B445C83A44
:2007300010C004081800541E008000F410A2A71700C000F41D695A1710BFFFD885B9883A0E
:200738008D6B883A1000D626AD4403C400BC0004A8AA703AA80B883A9009883A002229C08C
:20074000102F883A10BFFFD81000A826BF00A636008000F415297817AD29883A15297815D5
:20074800A007883AE5C0EC26008000F410A2A71710BFFFD81000EF26BF39C83AE0C7883A5F
:20075000008000F410E97815BF0001CCE000C526BF2FC83ABDC0020405040204A729C83AE4
:20075800BD6B883AA569C83AA503FFCCA00B883A9009883A002229C010FFFFE01800F31E2A
:2007600015C5C83A152B883A008000F4116978179DC00215AD400054A169883A15297815D2
:20076800BD40011584C0D626B08004281000D62680C00117013FFE04B0BFFD041104703AED
:2007700018C0004C1886B03A80C00115010001448087883A1900011519000215108004283D
:200778001000DF1EBD400117B821883A008000F410A959171500022E008000F415295915A2
:20078000008000F410A9581715006A2E008000F4152958150000670688C0005480C0011592
:200788008463883A108000549C400215888001159009883A0024DE0080800204003F7E068D
:2007900081000317003F05061006D27A19000168200050261900056820008C1E1940170426
:20079800280A90FA190016C4994B883A28C00017297FFE0428C0742601BFFF0419000117CD
:2007A0002188703A1100022E18C0021728FFFB1E19400317988001178140031580C00215A1
:2007A8002C0002151C000315003F360610C0056818004A2610C0156818007B1E8804D33AE3
:2007B00011C01BC4380890FA12001B84003EFD0663000044608000CC42000204103F3E1E77
:2007B8000000450681000217898000548180011520800315110002158463883A9C40051549
:2007C0009C40041528800054888001158A4003158A40021580C7883A194000159009883A75
:2007C8000024DE0080800204003F4306880ED0FA88800204003EBF068085883A10C0011761
:2007D0009009883A18C0005410C001150024DE0080800204003F38068900005481000115A3
:2007D8008463883A9C4005159C40041519000054890001158085883A8A4003158A400215D7
:2007E00010C000159009883A0024DE0080800204003F29061006D1BA19400E44280A90FA3B
:2007E80019000E04003FB00684C046269C0002178540011700BFFF04A8AA703AAC45C83ADE
:2007F000AC40023610C00408183F931E9009883A0024DE000005883A003F170611C0170475
:2007F800380890FA120016C4003EB6065880021739FFFFC412C0701E388000CC5AFFFE0406
:20080000103FFA1E98C001170104303A10C4703A988001152109883A113F2336203F2226AA
:200808002086703A1800041E2109883A2086703A63000104183FFC26600F883A003EE206D2
:20081000AD400404003F2B062009D0BA00800044998001171104983A1184B03A9880011527
:20081800003F8D06BD69883A0529C83AA503FFCCA00B883A9009883A002229C010FFFFE0A2
:20082000183F3F260029883A003F3F06190015682000201E1006D33A19401BC4280A90FA82
:2008280019001B84003F700610C055681800201E8804D3FA11C01E04380890FA12001DC457
:20083000003E8006008000F410E97817A8C7883A10E97815003F1406E083FFCC103F121E2B
:200838009C000217B56B883AAD40005485400115003F3E06008000F415E2A715003F1206EC
:20084000B821883A003F390600800044B8800115003FAE06190055682000191E1006D3FA6A
:2008480019401E04280A90FA19001DC4003F4E06108155681000191E8804D4BA11C01F44E9
:20085000380890FA12001F04003E5E06E73FFE04AF2B883AADEBC83A0029883A003F0A064F
:20085800814002049009883A00228B409C000217008000F41529781785400117003F1B063E
:2008600018C155681800091E1006D4BA19401F44280A90FA19001F04003F33060100FE04D0
:2008680001C01FC402001F84003E46060140FE0401001F84003F2C0698800117003F95063B
:20087000DEFFF504DC0008152021883A2809883ADC400915DFC00A152823883A00223AC082
:2008780011000044D88005150080004400C000B4D8800715D880040418DC0704D880011520
:2008800000800084DC400415D8C00615D9000315D8800215814002178000022680800E1765
:20088800100013262880030B10C8000C1800061E28C019170137FFC4108800141906703AA9
:200890002880030D28C01915D98001048009883A0022BB0010000B1E00800284DFC00A17F5
:20089800DC400917DC000817DEC00B04F800283A8009883AD940001500227500D9400017C2
:2008A000003FE80600BFFFC4003FF406008000F4200B883A1122AA1700221C01DEFFFE04DD
:2008A800DC000015008000F42021883A2809883ADFC0011510295B150024FB8010FFFFD8F2
:2008B00018000426DFC00117DC000017DEC00204F800283A00C000F418E95B17183FF926A1
:2008B80080C00015DFC00117DC000017DEC00204F800283A2144B03A108000CC1000141E36
:2008C0002080001728C0001710C0111E01FFBFF401A0207439FFBFC431A0200400000306C2
:2008C8002080001728C0001710C0091E11C7883A0084303A1884703A1184703A2100010430
:2008D00029400104103FF6260005883AF800283A20C0000318803FCC1080201C10BFE00409
:2008D8001000071E00000A0620C000032940004418803FCC1080201C10BFE00410000726CC
:2008E000298000072100004430BFF72618803FCC28C0000310C5C83AF800283A28C000032D
:2008E8000005883A10C5C83AF800283A208000CC100009262005883A000003061080004489
:2008F00010C000CC1800052610C00007183FFB1E1105C83AF800283A2005883A1140001701
:2008F80001FFBFF439FFBFC429C7883A01A02074014A303A1946703A31A020041986703A8F
:200900001800071E114001171080010429C7883A014A303A1946703A1986703A183FF9266D
:2009080010C00007183FEA2610C0004710800044183FE72610C0004710800044183FFA1EE8
:20091000003FE3060005883AF800283A014000B4294F9A040023114100C000B420800117D2
:2009180018C9130420C00F152140BB0400C000C420C0B9152140BA152000B8151000170528
:200920001000174510001785100017C5100018051000184510001885100018C500C00104BA
:2009280010C00315020000B420C0021701C000B4018000B4014000B4420EC40439CEDB047B
:20093000318EFB04294F1204024000741000191510000015100001151000021510000415CC
:200938001000051510000615108007151200081511C0091511800A1511400B154A4002844F
:200940001A400315180019151800001518000115180002151800041518001705180017457C
:2009480018001785180017C5180018051800184518001885180018C520800317024000B4E3
:20095000180005151800061518C007151A00081519C0091519800A1519400B154A400484BD
:200958001000191510000015100001151000021512400315100004151000051510000615E7
:20096000100017051000174510001785100017C5100018051000184510001885100018C513
:20096800108007151200081511C0091511800A1511400B150080004420800E15F800283AA3
:200970000005883AF800283ADEFFFC04DC8002152825883ADC00001501401A042021883A94
:20097800913FFFC4DFC00315DC400115002199808009883A11401D041023883A00219E0038
:200980001021883A100007261100030410000015148001151100021589801A04000B883A24
:2009880000234BC08005883ADFC00317DC800217DC400117DC000017DEC00404F800283A85
:20099000DEFFFD04008000F4DC0000151422A917DC400115DFC0021580800E172023883AFC
:2009980010002B268400B80480C001178080021718FFFFC41800030E0000210610801A0455
:2009A00030001F261140030F18FFFFC419BFFFD8283FFA1E00FFFFF418C00044100019150B
:2009A80010000015100001151000021510C00315100004151000051510000615100017052B
:2009B0001000174510001785100017C5100018051000184510001885100018C510000C15BE
:2009B80010000D151000111510001215DFC00217DC400117DC000017DEC00304F800283AA2
:2009C00080800017100005261021883A003FD6068009883A00224580003FD2060140010428
:2009C8008809883A00225C8080800015103FF61E00C0030488C00015003FEC06008000F47D
:2009D0001122A917014000B4294F9A040023114120800E1710000126F800283A0022458156
:2009D800F800283AF800283AF800283AF800283A008000F41122AA17014000B429491104B3
:2009E000002307C1008000F41122AA17014000B429497004002307C1DEFFFB04DCC003154E
:2009E80004C000B4DC800215DC400115DC000015DFC004152821883A9CDC13042025883A88
:2009F0000024DBC0988002171440011700BFFF0488A2703A8C21C83A8403FBC48020D33A53
:2009F800843FFFC48020933A8084000810000626000B883A9009883A002229C098C0021700
:200A00001C47883A10C00A269009883A0024DE000005883ADFC00417DCC00317DC800217A8
:200A0800DC400117DC000017DEC00504F800283A040BC83A9009883A002229C010BFFFD889
:200A100010000D26008000F410A9781798C002178C23C83A8C4000541421C83A1C400115DC
:200A1800008000F49009883A142978150024DE0000800044003FE706000B883A9009883A0B
:200A2000002229C0990002171107C83A19400410283FDD1E014000F42962A71718C0005466
:200A280020C001151145C83A014000F428A97815003FD50628004F26DEFFFD04DC40011506
:200A3000DC0000152023883A2821883ADFC002150024DBC081FFFF1700BFFF8480FFFE04D7
:200A38003884703A010000B4188D883A211C13043140011722000217027FFF042A4A703A62
:200A4000418064263140011539C0004C3151883A3800281E82BFFE174200011701C000B498
:200A48001A87C83A1A40021739DC15041285883A4200004C49C04C261A8003174A80031552
:200A500052400215400071261140005419400115308000151140802828002C1E100AD0FADE
:200A5800100CD17A0080004429400044280A90FA21C001171184983A214B883A298000179C
:200A600011C4B03A29FFFE0419C00315198002152080011528C0001530C003158809883ADE
:200A6800DFC00217DC400117DC000017DEC003040024DE0141C0011739C0004C38000E1E25
:200A700001C000B41145883A39DC150431400217124000541891883A29C0522631800317E4
:200A780029800315314002151A40011540800015003FD806F800283A11400054817FFF15A0
:200A80003080001511408028283FD426100AD27A298001683000341E100AD1BA29800E449D
:200A8800300C90FA29C00E04218D883A3140001731BFFE043140422601FFFF042900011786
:200A900021C8703A1100022E29400217317FFB1E29800317198003151940021530C002153C
:200A980028C00315003FCD0640004D1E31000317318002172885883A11400054310003150F
:200AA00021800215194001151887883A18800015003FC20639C0004C1145883A3800071E40
:200AA80081FFFE1719C7C83A194003171980021711C5883A3140031529800215014000F47C
:200AB000118000542962A8171980011520C00215117FB236008000F411695A178809883A27
:200AB80000227980003FAD062980056830000926298015683000191E100AD33A29801BC460
:200AC000300C90FA29C01B84003FC7061145883A003FAE0629801704300C90FA29C016C464
:200AC800003FC10620C0051520C0041519C0031519C002151A40011540800015003F970613
:200AD000380FD0BA008000442200011711CE983A3A0EB03A21C00115003FBE0629805568F4
:200AD8003000051E100AD3FA29801E04300C90FA29C01DC4003FAC06294155682800051E06
:200AE000100AD4BA29801F44300C90FA29C01F04003FA5060180FE0401C01F84003FA206B8
:200AE800110000541900011530800015003F7B06308002171000C82629C0030BDEFFF40442
:200AF000DD800815DD400715DC000215DFC00B15DF000A15DDC00915DD000615DCC005151A
:200AF800DC800415DC4003153880020C302D883A202B883A2821883A10002226288004171D
:200B0000100020263880008CB4400017100025268080091781400717052000340027883A94
:200B08000025883AA53F0004980D883AA809883A90001026900F883AA480012EA00F883A39
:200B1000103EE83A00809F0EB100021798A7883A90A5C83A2085C83AB0800215100063269F
:200B18008080091781400717980D883AA809883A903FF01E8CC000178C8001178C400204AE
:200B2000003FE906800B883AA809883A0023CB401000F81E81C0030BB44000173880008CD5
:200B2800103FDB1E3880004C848002178200001710008B1E00A0003410BFFF8400E00034B8
:200B3000D880001518BFFFC40039883A0027883AD8800115980041263880800C1000932640
:200B3800902F883A9C80BA363881200C100026268180051781400417988000443189883AFE
:200B40002189883A2028D7FA4165C83A1485883AA109883A2029D07AA00D883AA080022E4F
:200B48001029883A100D883A39C1000C3800C126A809883A300B883A00219E001009883A84
:200B50001000C82681400417900D883A002329001009883A8080030B00FEDFC410C4703AF8
:200B5800108020148080030D2491883AA485C83A8100041582000015850005159825883AB8
:200B600080800215982F883A4009883AB80D883AE00B883A00233900810002178080001789
:200B68009829883A24A5C83A15C5883A84800215808000150027883AB0800217E539883A41
:200B70001529C83AB5000215A000082681C0030B8480021782000017983FBF1E8F0000172C
:200B78008CC001178C400204003FBA060005883ADFC00B17DF000A17DDC00917DD80081767
:200B8000DD400717DD000617DCC00517DC800417DC400317DC000217DEC00C04F800283ABE
:200B8800E1C073168080091781400717B80D883AA809883A103EE83A1025883A0080210E14
:200B9000A4A9C83AA000652600800044B1800217BCAF883A9CA7C83A34A5C83AB480021525
:200B9800903FE22684800217820000179800212610002426A005883A9839883A14C0012E7A
:200BA0001039883A8080041781C00517123FE42E3CA5883A973FE20EB80B883A4009883A56
:200BA800900D883A0023390080800017800B883AA809883A1485883A80800015002419806E
:200BB000103FDF268080030B108010148080030D00BFFFC4003FC6060005883AF800283A51
:200BB8000027883A0029883A0005883A002F883A983FDF1E8CC001178DC000178C40020423
:200BC000983FFC26980D883A01400284B809883ADA00001500231BC0DA0000171000422615
:200BC8001080004415E9C83A003FD2068080041712001436850005179D001236D8800017B6
:200BD00014C0372ED9000117A00B883A00217E40A00B883A1009883A00219980820009176B
:200BD80081400717100F883AE00D883AA809883A403EE83A1029883A00BFD20E9D27C83A1B
:200BE000003F8D069029883A9C80012E9829883A4009883AA00D883AE00B883A0023390057
:200BE80080800217810000171505C83A2509883A8080021581000015103FF01E800B883AD9
:200BF000A809883A00241980103FEC26003FBD069825883A982F883A003F6B06800B883A4D
:200BF800A809883A00241980103F9826003FB506E00D883AB80B883A4009883A002339000B
:200C00008080021781800017E025883A1705C83A370D883A8080021581800015003F8806BE
:200C08009809883A003FC806988000441029883A003F9106A809883A00235AC01009883AA4
:200C1000103F491E81400417A809883A00228B408080030B00C00304A8C0001510BFDFCC06
:200C1800003F990600C003048080030BA8C00015003F950600BFFFC4003F5D06DEFFFA04B3
:200C2000DD000415DCC00315DC800215DFC00515DC400115DC0000152827883A2480B8044A
:200C28000029883A94400117940002178C7FFFC488000D168080030B8C7FFFC4108000B093
:200C30001000061E8080038F8009883A10BFFFE01000021E983EE83AA0A8B03A88BFFFD86D
:200C380084001A04103FF31E94800017903FED1EA005883ADFC00517DD000417DCC00317C5
:200C4000DC800217DC400117DC000017DEC00604F800283ADEFFF904DD400515DD000415EF
:200C4800DCC00315DC800215DFC00615DC400115DC000015202B883A2827883A2480B8040A
:200C50000029883A94400117940002178C7FFFC488000E168080030B8C7FFFC4108000B06A
:200C58001000071E8080038F800B883AA809883A10BFFFE01000021E983EE83AA0A8B03AED
:200C600088BFFFD884001A04103FF21E94800017903FEC1EA005883ADFC00617DD400517F5
:200C6800DD000417DCC00317DC800217DC400117DC000017DEC00704F800283A208000CCB3
:200C7000280F883A10000E2630BFFFC43000172629803FCC000006062100004420C000CC37
:200C78001800082610BFFFC410FFFFE018000F1E20C0000319BFF81E2005883AF800283A3F
:200C80003005883A10C0012818000A1E10001F262087883A39803FCC2005883A11000003A7
:200C880021BFF6261080004418BFFC1E0005883AF800283A2810923A29403FCC027FBFF4BE
:200C9000423FFFCC414AB03A2810943A01A020744A7FBFC44150B03A31A0200420C0001795
:200C980040C6F03A1A4B883A00C6303A28C6703A1986703A183FE61E10BFFF0410C00128AE
:200CA00021000104183FF51E003FE006F800283A30C004302005883A18002D1E2906B03A9E
:200CA80018C000CC1800351E32FFFC045816D13A280F883A2007883A5AC000445816913AFA
:200CB00022D5883A390001173A4000173A00021719000115390003171A4000151A00021514
:200CB8001900031518C0040439C0040450FFF51E3100030C2ACB883A320003CC2000222648
:200CC000280F883A1813883A39C001043ABFFF1741C9C83A2909883A4A80001521000128F8
:200CC8004A400104203FF81E413FFF042008D0BA318000CC31FFFFC421000044200890BA8C
:200CD0001907883A290B883A3000041EF800283A2007883A31FFFFC4303FFC2639C00044D6
:200CD80019CF883A2980000318C000442940004419BFFFC538FFFB1EF800283A31FFFFC4A4
:200CE0002007883A003FF506400D883A003FF1062005883A29000A2E2989883A1100082E89
:200CE8001187883A30003E26217FFFC318FFFFC4213FFFC41940000510FFFB1EF800283ABF
:200CF00030C0043018000B261007883A31FFFFC43000372639C0004429CF883A298000037B
:200CF8002940004418C0004419BFFFC529FFFB1EF800283A2886B03A18C000CC1800291E41
:200D0000327FFC044812D13A280F883A1007883A4A4000444812913A1251883A3900001783
:200D080039C0040418C00404193FFC15393FFD17193FFD15393FFE17193FFE15393FFF1705
:200D1000193FFF1540FFF51E3100030C2A4B883A320003CC200017262813883A180F883A4A
:200D18004A80001739C0010441C9C83A1909883A210001283ABFFF154A400104203FF81E91
:200D2000413FFF042008D0BA318000CC21000044200890BA1907883A290B883A003FCB0642
:200D2800F800283A31FFFFC41007883A003FC906F800283A400D883A003FC40620C000CC59
:200D30002005883A1800362631FFFFC4300033262811883A2007883A0000030639FFFFC4E4
:200D380039BFFFE030002D1E18C00044198000CC1A3FFFC5303FF91E390001302000221E5B
:200D400029003FCC200C923A3A0004303108B03A200C943A310CB03A40000E1E393FFC04D1
:200D48002008D13A210000442008913A1909883A198000151980011519800215198003155E
:200D500018C0040420FFFA1E3900030C39C003CC20000D261811883A420001043A09C83A92
:200D58001909883A2100012841BFFF15203FFA1E393FFF042008D0BA39C000CC210000446B
:200D6000200890BA1907883A3800042619CF883A18C00044197FFFC538FFFD1EF800283AEF
:200D68002007883A300F883A003FD306DEFFF504DC800315DFC00A15DF000915DDC00815AA
:200D7000DD800715DD400615DD000515DCC00415DC400215DC0001153025883A28008B26F1
:200D78002821883A2027883A944002C40024DBC0888005F01000521E017FFE048962703A5A
:200D80008807883A880051168C80503680BFFF17017FFF04857FFE041168703AAD2D883AE4
:200D8800A0C0390E070000B4E71C1304E2000217B100011745808E2601BFFF84218C703AF8
:200D9000B18D883A318001173180004C30004F1E2148703AA10B883A28C0BF0E1080004CCE
:200D980010004C1E81FFFE1700BFFF04A9CFC83A39400117288A703AB0000426A16F883A57
:200DA000B92F883A4580BF26B8C0930E38004126A16F883AB8C03F163880031738C00217A5
:200DA800A1BFFF04314009681880031510C00215390002043DED883A2800941E3080053065
:200DB00080C000171000DF1E38C0021580C001173080072838C003151000DC1E80C0021706
:200DB800388004048400020410C0001580C00117B829883A382B883A10C0011580C002178D
:200DC0002021883A10C00215A9800117A445C83A10C004303180004C18004926A18CB03A5E
:200DC800A9800115B080011710800054B08001159809883A0024DE008025883A0000060682
:200DD0000440040400C004048CBFB02E00800304988000150025883A9005883ADFC00A1714
:200DD800DF000917DDC00817DD800717DD400617DD000517DCC00417DC800317DC40021730
:200DE000DC000117DEC00B04F800283A1080004C10006C26900B883A9809883A00219E00FB
:200DE8001025883A1000162680BFFF17013FFF8490FFFE041104703AA885883A10C05B2600
:200DF000A1BFFF043080096810006A1E3080053081000017100037269005883A8007883A3D
:200DF80011000015190001171100011518C0021710C00215800B883A9809883A00228B40E8
:200E00009809883A0024DE00003FD306300B883ADFC00A17DF000917DDC00817DD80071762
:200E0800DD400617DD000517DCC00417DC800317DC400217DC000117DEC00B0400219E01D4
:200E1000344CB03AA9800115AC4B883A1080005428800115B0800117294002049809883AA4
:200E180010800054B080011500228B40003FB0062148703AA10B883A8980040429BF7716A7
:200E2000AC6B883A2C45C83AE540021510800054A880011580BFFF179809883A8025883AE9
:200E28001080004C1462B03A847FFF150024DE00003FA9069100001580C00117308007288A
:200E300090C001151000551E8100021780C0020490800204003FC206B0800317B0C00217E9
:200E3800A1BFFF04314009681880031510C0021538C0021738800317390002043DED883AB0
:200E40001880031510C00215283F6C26800B883AD9C0001500233900D9C000171021883A08
:200E4800B829883A382B883A003F770690BFFF1700FFFF0410C4703AA0A9883AAD2D883A7A
:200E5000003F710681FFFE17A9CFC83A39000117214A703A003F4D06B0800317B0C00217F2
:200E58002829883AA96D883A1880031510C00215003F6506800B883A9009883A002339004A
:200E6000003F9C0688800404B8BF40163880031738C00217A1BFFF0431000968188003151C
:200E680010C002153C80020420003B1E3080053080C000171000361E38C0021580C0011741
:200E70003080072838C003151000401E80C00217388004048400020410C0001580C0011725
:200E780010C0011580C0021710C002153C47883ABC45C83AE0C002151080005418800115A3
:200E8000388001179809883A1080004C1462B03A3C4001150024DE00003F4F0680800217A2
:200E8800318009209080021580800317908003158100041730000F1E80C0040490800404AE
:200E9000003F67062005883A003F2706808002173180092038800415808003173880051593
:200E980080C004173000121E3880060484000404003F1D06910004158100051780C006043E
:200EA000908006049100051581000617003F54069005883A003FD006800B883A9009883A22
:200EA800D9C0001500233900D9C00017003FCF068400060438C0061580FFFF173880080462
:200EB00038C0071580C00017003F07068080021731800920388004158080031738800515BB
:200EB80080C004173000031E3880060484000404003FB9068400060438C0061580FFFF17EC
:200EC0003880080438C0071580C00017003FB206DEFFFE04DC0000152821883A2940038F16
:200EC800DFC00115002445C01000071680C014171887883A80C01415DFC00117DC00001720
:200ED000DEC00204F800283A80C0030B18FBFFCC80C0030DDFC00117DC000017DEC002043A
:200ED800F800283A0005883AF800283A2880030BDEFFFB04DCC00315DC800215DC40011594
:200EE000DC000015DFC0041510C0400C2821883A2023883A2940038F3025883A3827883AEA
:200EE80018000C1E10BBFFCC980F883A900D883A8809883A8080030DDFC00417DCC0031777
:200EF000DC800217DC400117DC000017DEC005040023C50101C00084000D883A002422005C
:200EF8008080030B8140038F003FEE06DEFFFE04DC0000152821883A2940038FDFC00115BB
:200F00000024220010FFFFD81800082680C0030B8080141518C4001480C0030DDFC00117F1
:200F0800DC000017DEC00204F800283A80C0030B18FBFFCC80C0030DDFC00117DC000017B2
:200F1000DEC00204F800283A2940038F0023E1012807883ADEFFFE04DC000015300B883A05
:200F1800008000F4380D883A2021883A1809883ADFC0011510295B1500250DC010FFFFD822
:200F200018000426DFC00117DC000017DEC00204F800283A00C000F418E95B17183FF9262A
:200F280080C00015DFC00117DC000017DEC00204F800283A008000F410A2AA17DEFFFD04E7
:200F3000DC400115DC000015DFC002152023883A2821883A1000022610C00E17180033261A
:200F38008180030B30C0020C3005883A18000F2680C00417180016261100004C20001F1EDF
:200F40001100008C20002C1E810005178100021518001F260005883ADFC00217DC40011745
:200F4800DC000017DEC00304F800283A3080040C100031263080010C1000211E80C0041709
:200F5000308002148080030D100D883A183FEA1E1100A00C21008020203FE71E8809883A38
:200F5800800B883A002431C08180030B80C004173005883A1100004C203FE1268100051756
:200F6000800002150109C83A81000615183FE11E10C0200C0005883A183FDF2631801014E8
:200F68008180030D00BFFFC4003FDB061009883A00227500003FCA060009883A003FD30652
:200F700081400C172800062680801004288003268809883A00228B408180030B80000C1554
:200F780080C0041700BFF6C4118C703A8000011580C00015003FD206008002448880001559
:200F8000318010148180030D00BFFFC4003FC206DEFFFE04DC000015008000F42021883A9B
:200F88002809883ADFC0011510295B1500245B4010FFFFD818000426DFC00117DC00001767
:200F9000DEC00204F800283A00C000F418E95B17183FF92680C00015DFC00117DC000017A7
:200F9800DEC00204F800283ADEFFFC04DFC00315DC800215DC400115DC00001528000726BC
:200FA0002821883A2023883A2000022620800E17100027268080030F1000081E0025883A88
:200FA8009005883ADFC00317DC800217DC400117DC000017DEC00404F800283A800B883A30
:200FB0008809883A0023F70080C00B171025883A18000426814007178809883A183EE83A6F
:200FB800100017168080030B1080200C1000181E81400C17280005268080100428800226B1
:200FC0008809883A00228B4080000C1581401117280003268809883A00228B408000111510
:200FC800002276008000030D00227640003FDC06002275008080030F103FD826003FDF06CE
:200FD0008080030B04BFFFC41080200C103FE826814004178809883A00228B40003FE4060F
:200FD800008000F4200B883A1122AA170023E6812880030BDEFFFB04DCC00315DC000015E3
:200FE000DFC00415DC800215DC40011510C0020C2821883A2027883A18003F1E28C001172D
:200FE800108200142880030D00C0550E82000A17400031269C4000171104000C980000156D
:200FF000814007171007883A2000521E01C00044000D883A9809883A403EE83A10FFFFD8DC
:200FF8001800582680C0030B82000A178140071718C0010C180006268100011780C00C174E
:201000001105C83A1800022680C00F1710C5C83A100D883A000F883A9809883A403EE83A88
:2010080010FFFFD818003D1E9900001780C0030B20004E26214007602800021E210005A007
:2010100020002C268080041718FDFFCC80C0030D800001158080001581400C179C40001583
:201018002800052680801004288002269809883A00228B4080000C150005883ADFC004170F
:20102000DCC00317DC800217DC400117DC000017DEC00504F800283A2C800417903FF626AB
:201028002C400017108000CC2C8000158CA3C83A1000161E2880051780800215044003165B
:20103000003FED0690A5883A047FEB0E8080091781400717880F883A900D883A9809883AE1
:20103800103EE83A88A3C83A00BFF61680C0030B00BFFFC418C0101480C0030D003FDF06F0
:2010400028C00F1700FFA916003FDB060005883A003FE90680801417003FB50680C0030B3C
:201048008100041780000115197DFFCC8140030D8100001518C4000C183FC7268080141539
:20105000003FC50698C00017183FA6261900076020000E1E18C0059818000C2680C0030B0B
:2010580018C0101480C0030D003FC40681000417197DFFCC8140030D800001158100001529
:2010600018C4000C183FB426003FEC069C4000150005883A003FB906DEFFFD04DC000115A0
:20106800DFC002152021883A2000022620800E17100007262880030F10000A1E0005883AAC
:20107000DFC00217DC000117DEC00304F800283AD940001500227500D94000172880030F06
:20107800103FF6268009883ADFC00217DC000117DEC003040023F701200B883A2000032600
:20108000008000F41122AA1700241981008000F41122A917014000B4295066040023114176
:201088002807883ADEFFFE04DC000015300B883A008000F4380D883A2021883A1809883A29
:20109000DFC0011510295B150024C60010FFFFD818000426DFC00117DC000017DEC0020482
:20109800F800283A00C000F418E95B17183FF92680C00015DFC00117DC000017DEC002049E
:2010A000F800283ADEFFEA04DC0012152821883A2940038FDC801415DC401315DFC0151570
:2010A8003023883A3825883A28001016D80D883A00244C0010000D16D8C001170082000426
:2010B00018FC000C18C8002090C0001500C1000488C00015DFC01517DC801417DC401317E1
:2010B800DC001217DEC01604F800283A8080030B900000151080200C1000042600801004C4
:2010C000888000150005883A003FF20600810004888000150005883A003FEE062880030BA3
:2010C800DEFFFA04DC000215DFC00515DC800415DC4003151080008C2821883A10000B2670
:2010D000288010C428800015288004150080004428800515DFC00517DC800417DC40031718
:2010D800DC000217DEC00604F800283AD9C00104D80D883A2023883A00242840D90001173A
:2010E0001025883A2000131ED94000178809883A00219E0010001C26010000B4210913041E
:2010E80080C0030B89000F158080001580800415D8800017D940011718C0201480C0030DC3
:2010F0008080051528001D1E90C6B03A80C0030D003FE0068140038F8809883A0024520092
:2010F800103FE9268080030B80C010C480C00015108000548080030D0080004480C00415F2
:2011000080800515003FE0068080030B10C0800C183FD01E00FFFF0410C4703A108000943D
:2011080080C010C48080030D0080004480C0001580C0041580800515003FC6068140038FB9
:201110008809883A0024520080C0030B103FDE2618FFFF0C18C00054003FDB062807883AF6
:20111800DEFFFE04DC000015300B883A008000F4380D883A2021883A1809883ADFC00115D4
:2011200010295B150024E40010FFFFD818000426DFC00117DC000017DEC00204F800283A2E
:2011280000C000F418E95B17183FF92680C00015DFC00117DC000017DEC00204F800283A0D
:201130002807883ADEFFFE04DC000015008000F4300B883A2021883A1809883ADFC00115D2
:2011380010295B1500246F8010FFFFD818000426DFC00117DC000017DEC00204F800283A0B
:2011400000C000F418E95B17183FF92680C00015DFC00117DC000017DEC00204F800283AF5
:20114800DEFFFE04DC000015008000F42021883A2809883ADFC0011510295B150024A880A3
:2011500010FFFFD818000426DFC00117DC000017DEC00204F800283A00C000F418E95B1788
:20115800183FF92680C00015DFC00117DC000017DEC00204F800283ADEFFFE04DFC0011570
:20116000DF000015D839883AD0A0101710000326D0A01017103EE83A00000106D0A6BB0495
:20116800E037883ADFC00117DF000017DEC00204F800283ADEFFFB04DFC00415DF00031558
:20117000DF000304E13FFD15E0BFFD1710000916E0FFFD171805883A1085883A10C5883AA5
:20117800100490BA00C000B418DE280410C5883A000001060005883AE0BFFF15E0BFFF1796
:2011800010001926E0BFFF17108000171080041710000626E0BFFF171080001710800417B6
:20118800E13FFF17103EE83A000001060005883AE0BFFE15E13FFD170024F480E0BFFE17A1
:201190001000070E002457801007883AE0BFFE170085C83A1880001500BFFFC400000706CF
:201198000005883A00000506002457801007883A008014441880001500BFFFC4E037883AB1
:2011A000DFC00117DF000017DEC00204F800283ADEFFFC04DF000315DF000304E13FFF1596
:2011A800E17FFE15E1BFFD15E0BFFD17E037883ADF000017DEC00104F800283ADEFFFE04A4
:2011B000DFC00115DF000015D839883AD0A0101710000326D0A01017103EE83A00000106C5
:2011B800D0A6BB04E037883ADFC00117DF000017DEC00204F800283ADEFFFB04DFC00415CA
:2011C000DF000315DF000304E13FFE15E17FFD15E0BFFE1710000916E0FFFE171805883AD7
:2011C8001085883A10C5883A100490BA00C000B418DE280410C5883A000001060005883AC0
:2011D000E0BFFF15E0BFFF1710001026E0BFFF17108000171080081710000726E0BFFF1754
:2011D8001080001710800817E17FFD17E13FFF17103EE83A00000A06E0BFFD1700C80004F8
:2011E00010C001150005883A0000050600246BC01007883A008014441880001500BFFFC408
:2011E800E037883ADFC00117DF000017DEC00204F800283ADEFFF904DFC00615DF000515D6
:2011F000DF000504E13FFF15E17FFE15E1BFFD15E1FFFC15E0800217D8800015E1FFFC17D4
:2011F800E1BFFD17E17FFE17E13FFF1700249640E037883ADFC00117DF000017DEC0020454
:20120000F800283ADEFFF904DF000615DF000604E13FFB15E17FFA15E0BFFA17E0BFFF15B5
:201208000005303AE0BFFE15E0FFFE1700BFFF841884703A1001703AE0BFFE17E0BFFD1509
:2012100000C00044E0BFFF171884983A1007883AD0A6BC171884B03AD0A6BC15D0A6BC175F
:20121800100170FAE0BFFD17E0BFFC15E0BFFC171001703A0001883A0005883AE037883A08
:20122000DF000017DEC00104F800283ADEFFF904DF000615DF000604E13FFB15E17FFA155F
:20122800E0BFFA17E0BFFF150005303AE0BFFE15E0FFFE1700BFFF841884703A1001703AEB
:20123000E0BFFE17E0BFFD1500C00044E0BFFF171884983A0084303A1007883AD0A6BC1702
:201238001884703AD0A6BC15D0A6BC17100170FAE0BFFD17E0BFFC15E0BFFC171001703A75
:201240000001883A0005883AE037883ADF000017DEC00104F800283ADEFFFC04DF00031564
:20124800DF000304E13FFE15E17FFD15000530FAE0BFFF1500C00044E0BFFD171884983AF4
:201250001007883AE0BFFF171884703A1004C03A10803FCCE037883ADF000017DEC001048F
:20125800F800283ADEFFF504DFC00A15DF000915DF000904E13FFA15E17FF915E1BFF81555
:20126000E1FFF71500BFFA84E0BFFF15E0BFF917E0BFFE15E0BFFE17108008081000251E8A
:201268000005303AE0BFFC15E0FFFC1700BFFF841884703A1001703AE0BFFC17E0BFFD15AF
:20127000E0BFFE17100890FAE0FFF817008000F42085883A10E98215E0BFFE17100890FA59
:20127800E0FFF717008000F42085883A10E98315E0BFF81710000526E0BFFE17100B883A83
:20128000E13FFA170024804000000406E0BFFE17100B883AE13FFA17002488C0E0BFFF154E
:20128800E0BFFD17E0BFFB15E0BFFB171001703A0001883AE0BFFF17E037883ADFC0011770
:20129000DF000017DEC00204F800283ADEFFFE04DFC00115DF000015D839883AD0A0101758
:2012980010000326D0A01017103EE83A00000106D0A6BB04E037883ADFC00117DF00001734
:2012A000DEC00204F800283ADEFFEA04DFC01515DF001415DF001404E13FEC15E0BFEC17DA
:2012A80010000916E0FFEC171805883A1085883A10C5883A100490BA00C000B418DE280454
:2012B00010C5883A000001060005883AE0BFFF15E0BFFF1710000E26E0BFFF1710800017B1
:2012B800108008171000021E0080004400000D06E0BFED04100B883AE13FEC1700246F80BD
:2012C000E0BFEE171088002010803FCC000005060024A4C01007883A008014441880001526
:2012C8000005883AE037883ADFC00117DF000017DEC00204F800283ADEFFFC04DF000315E7
:2012D000DF000304E13FFF15E17FFE15E1BFFD15E0FFFE17E0BFFF1718800C26000008063E
:2012D800E0FFFF1718800104E0BFFF15E0BFFE1711000104E13FFE1518C0001710C00015E0
:2012E000E0FFFE17E0BFFD1718BFF51E0001883AE037883ADF000017DEC00104F800283ACE
:2012E800DEFFFE04DFC00115DF000015D839883A018000F431A2B504014000B4295C1304F9
:2012F000010000F42122B5040024B380018000B431808904014000B429400804010000B404
:2012F800210008040024B380018000B4319C1304014000B4295BAF04010000B4211BAF0469
:201300000024B38000261980002636400001883AE037883ADFC00117DF000017DEC002042E
:20130800F800283ADEFFFE04DFC00115DF000015D839883AD0A0101710000326D0A01017A9
:20131000103EE83A00000106D0A6BB04E037883ADFC00117DF000017DEC00204F800283A8D
:20131800DEFFF904DFC00615DF000515DF000504E13FFD15E17FFC15E1BFFB15E03FFF15BA
:20132000E0BFFD1710000916E0FFFD171805883A1085883A10C5883A100490BA00C000B439
:2013280018DE280410C5883A000001060005883AE0BFFE15E0BFFE1710001026E0BFFE17BE
:20133000108000171080071710000926E0BFFE171080001710800717E1BFFB17E17FFC17DB
:20133800E13FFE17103EE83AE0BFFF150000050600BFDE84E0BFFF150000020600BFEBC4E8
:20134000E0BFFF15E0BFFF171000070E0024C2401007883AE0BFFF170085C83A1880001518
:2013480000BFFFC4E0BFFF15E0BFFF17E037883ADFC00117DF000017DEC00204F800283A17
:20135000DEFFFD04DFC00215DF000115DF0001040009883A002521400001883A00252500B2
:20135800018000B4319C0B04014000B4295C0B04010000B4211C0B0400264F00002629C056
:20136000010000B42118C0040026C040D0A6BD17D0E6BE17D126BF17200D883A180B883A1F
:201368001009883A00202600E0BFFF150100004400245B40E13FFF170026C180DEFFFE0411
:20137000DF000115DF000104E13FFF150001883AE037883ADF000017DEC00104F800283AC1
:20137800DEFFFE04DF000115DF000104E13FFF150001883AE037883ADF000017DEC0010434
:20138000F800283ADEFFFE04DFC00115DF000015D839883AD0A0101710000326D0A0101731
:20138800103EE83A00000106D0A6BB04E037883ADFC00117DF000017DEC00204F800283A15
:20139000DEFFF904DFC00615DF000515DF000504E13FFD15E17FFC15E1BFFB15E0BFFD17C2
:2013980010000916E0FFFD171805883A1085883A10C5883A100490BA00C000B418DE280452
:2013A00010C5883A000001060005883AE0BFFF15E0BFFF1710002226E0BFFF1710800217AA
:2013A800108000CC108000601000181EE0BFFF17108000171080051710001426E0BFFF178C
:2013B0001080001710800517E0FFFB17180D883AE17FFC17E13FFF17103EE83AE0BFFE1527
:2013B800E0BFFE171000070E0024E0401007883AE0BFFE170085C83A1880001500BFFFC4B5
:2013C00000000C06E0BFFE1700000A060024E0401007883A0080034418800015000004069C
:2013C8000024E0401007883A008014441880001500BFFFC4E037883ADFC00117DF0000175B
:2013D000DEC00204F800283ADEFFFE04DF000115DF000104E13FFF15E0BFFF17108000D0FE
:2013D8001000101EE0FFFF171805883A1085883A10C5883A100490BA00C000B410C7883A8A
:2013E000181E2A15E0FFFF171805883A1085883A10C5883A100490BA00C000B410C7883A4B
:2013E800181E28150001883AE037883ADF000017DEC00104F800283ADEFFF904DF0006150F
:2013F000DF000604E13FFA150005303AE0BFFD15E0FFFD1700BFFF841884703A1001703A6F
:2013F800E0BFFD17E0BFFF15D0A0121710C000C400BFFF041884703AD0A01215D0E01217CA
:20140000E0BFFA171887883A008001341080000410C0072EE0BFFF17E0BFFC15E0BFFC1756
:201408001001703A0001883A00BFFFC400000C06D0A01217E0BFFE15D0E01217E0BFFA17DE
:201410001885883AD0A01215E0BFFF17E0BFFB15E0BFFB171001703A0001883AE0BFFE177F
:20141800E037883ADF000017DEC00104F800283ADEFFFD04DFC00215DF000115DF0001047B
:20142000E13FFF15E13FFF1700260400E037883ADFC00117DF000017DEC00204F800283A94
:20142800DEFFFE04DFC00115DF000015D839883AD0A0101710000326D0A01017103EE83A72
:2014300000000106D0A6BB04E037883ADFC00117DF000017DEC00204F800283ADEFFF90402
:20143800DFC00615DF000515DF000504E13FFD15E17FFC15E1BFFB15E0BFFD1710000916C4
:20144000E0FFFD171805883A1085883A10C5883A100490BA00C000B418DE280410C5883A41
:20144800000001060005883AE0BFFF15E0BFFF1710002126E0BFFF1710800217108000CC3D
:2014500010001826E0BFFF17108000171080061710001426E0BFFF171080001710800617D2
:20145800E0FFFB17180D883AE17FFC17E13FFF17103EE83AE0BFFE15E0BFFE171000070EF8
:2014600000250A001007883AE0BFFE170085C83A1880001500BFFFC400000C06E0BFFE1734
:2014680000000A0600250A001007883A00800344188000150000040600250A001007883AC6
:20147000008014441880001500BFFFC4E037883ADFC00117DF000017DEC00204F800283AD1
:20147800DEFFFD04DFC00215DF000115DF000104E13FFF15D1600D04E13FFF1700261F40B6
:20148000E037883ADFC00117DF000017DEC00204F800283ADEFFFD04DFC00215DF0001153F
:20148800DF000104E13FFF1500269900008000441001703A0001883A0001883AE037883A8F
:20149000DFC00117DF000017DEC00204F800283ADEFFFE04DFC00115DF000015D839883A36
:20149800000D883A000B883A010000B4211E920400254000010000B4211E880400251E00E6
:2014A0000001883A0001883AE037883ADFC00117DF000017DEC00204F800283ADEFFFA0447
:2014A800DFC00515DF000415DF000404E13FFE15E17FFD15E1BFFC15E0BFFE1710800017DB
:2014B000E0BFFF15E0BFFF1710C00A04E0BFFE1710800217100F883AE1BFFC17E17FFD1771
:2014B8001809883A00258C80E037883ADFC00117DF000017DEC00204F800283ADEFFFA04A1
:2014C000DFC00515DF000415DF000404E13FFE15E17FFD15E1BFFC15E0BFFE1710800017C3
:2014C800E0BFFF15E0BFFF1710C00A04E0BFFE1710800217100F883AE1BFFC17E17FFD1759
:2014D0001809883A0025AE80E037883ADFC00117DF000017DEC00204F800283ADEFFFC0465
:2014D800DFC00315DF000215DF000204E13FFE15E0BFFE1710800017E0BFFF15E0BFFF176C
:2014E00010C00A04E0BFFE1710800217100B883A1809883A002576C0E037883ADFC0011706
:2014E800DF000017DEC00204F800283ADEFFFA04DFC00515DF000415DF000404E13FFE154A
:2014F000E17FFD15E1BFFC15E0BFFE1710800017E0BFFF15E0BFFF1710800A04E1BFFC17A5
:2014F800E17FFD171009883A00257D40E037883ADFC00117DF000017DEC00204F800283A1F
:20150000DEFFFA04DFC00515DF000415DF000404E13FFF15E17FFE15E1BFFD15E0BFFF174A
:2015080000C0004410C00815E0BFFF1710800017108001041007883AE0BFFF1710800817A4
:2015100018800035E0BFFE17E0FFFD17D8000015E1FFFF17018000B431953004180B883A50
:201518001009883A00247B40E0BFFF1710000915E0BFFF1710800204D0E6C117E1FFFF1747
:20152000018000B43195B304180B883A1009883A0025F0C01000040EE0FFFF1700A0003479
:2015280010BFFFC4188001150001883AE037883ADFC00117DF000017DEC00204F800283A1C
:20153000DEFFF804DF000715DF000704E13FF915E0BFF917E0BFFD15E0BFFD1710800017F5
:20153800E0BFFC15E0BFFC171080010410800037E0BFFB15E0BFFB171080C00C10006D2676
:20154000E0BFFB171080400C1000352600800074E0BFFF15E0BFFD1710800A1710800044B4
:201548001081FFCCE0BFFA15E0BFFD1710800B17E0FFFA1718801526E0BFFC1710800037D8
:20155000E0BFFF15E0BFFF1710A0000C10001126E0BFFD1710800A17E0FFFF171809883AD4
:20155800E0FFFD171885883A11000E05E0BFFD1710800A171080004410C1FFCCE0BFFD1776
:2015600010C00A150001883A003FE2060001883A000001060001883AE0BFFF1710BFFFEC96
:2015680010000F26E0BFFD1710C0081700BFFF841886703AE0BFFD1710C00815E0BFFC17A0
:20157000108001041007883AE0BFFD171080081718800035E0BFFC171080010410800037B0
:20157800E0BFFB171080800C103FBE26E0BFFB171004D43AE0BFFE1500001406E0BFFC1702
:20158000E0FFFD1718C00D17E13FFD1720C7883A18C20E0318C03FCC18C0201C18FFE004A2
:2015880010C00035E0BFFD1710800D171080004410C1FFCCE0BFFD1710C00D150001883AFF
:20159000E0BFFE1710BFFFC4E0BFFE15E0BFFE1710000526E0BFFD1710C00D17E0BFFD17FA
:2015980010800C1718BFE51EE0BFFE17103F9D26E0BFFD1710C0081700BFFF441886703AF4
:2015A000E0BFFD1710C00815E0BFFD1710800017108001041007883AE0BFFD171080081761
:2015A80018800035E0BFFC171080010410800037003F8C060001883A0001883AE037883A18
:2015B000DF000017DEC00104F800283ADEFFFC04DF000315DF000304E13FFD15E0BFFD1789
:2015B800E0BFFF15E0BFFF17108000171080010410800037E0BFFE15E0BFFE171081000CA5
:2015C00010000B26E0BFFF1710800017108001041007883AE0BFFF171080081710810014F7
:2015C80018800035E0BFFF171000091500000A06E0BFFF1710C0091700A0003410BFFF04F8
:2015D00010C00536E0BFFF171080091710C00044E0BFFF1710C00915D0A6C117E037883AAD
:2015D800DF000017DEC00104F800283ADEFFFD04DF000215DF000204E13FFF15E17FFE15A0
:2015E00000000506E0BFFE171090000C1000022600BFFD4400000B06E0BFFF1710C00D178E
:2015E800E0BFFF1710800C1718800526E0BFFF1710C00917E0BFFF171080011718BFF136B8
:2015F0000005883AE037883ADF000017DEC00104F800283ADEFFFA04DF000515DF0005048C
:2015F800E13FFD15E17FFC15E1BFFB1500BFF9C4E0BFFF15E0BFFC17109A80601000041EE3
:20160000E0BFFC17109A80A01000181E00002906E0BFFD1710C0011700A0003410BFFFC4D8
:2016080018802126E0BFFB1710800017E0BFFE15E0BFFE17108000901000061EE0FFFE17DD
:2016100000A0003410BFFFC418800226E0BFFE170000020600A0003410BFFF84E0FFFD17BF
:2016180018800115E03FFF1500000F06E0BFFD1710C0011700A0003410BFFFC418800C26F1
:20162000E0BFFD1710C00917E0BFFD17108001171885803A10C03FCCE0BFFB1710C00015E4
:20162800E03FFF15000002060001883A000001060001883AE0BFFF17E037883ADF00001756
:20163000DEC00104F800283ADEFFF304DFC00C15DF000B15DF000B04E13FF815E17FF71583
:20163800E1BFF615E1FFF515E0BFF717E0BFFF1500004706E0BFF81710800A17E0BFFD1540
:20164000E0BFF81710800B17E0BFFC15E0FFFD17E0BFFC1718800536E0FFFD17E0BFFC175D
:201648001885C83AE0BFFE150000040600C20004E0BFFC171885C83AE0BFFE15E0BFFE17AA
:2016500010001E26E0FFF617E0BFFE171880022EE0BFF617E0BFFE15E0BFF81710C00E04D0
:20165800E0BFFC171885883AE1BFFE17100B883AE13FFF1700232900E0FFFF17E0BFFE17A4
:201660001885883AE0BFFF15E0FFF617E0BFFE171885C83AE0BFF615E0FFFC17E0BFFE17C9
:201668001885883A10C1FFCCE0BFF81710C00B15E0BFF61700BFCF16000001060001883AAF
:20167000E0FFFF17E0BFF7171880141EE0BFF5171090000C1000131E0001883AE0BFF817E5
:2016780010800A17E0FFFD171880051EE0BFF81710C00917E0BFF8171080011718BFF736FB
:20168000E0BFF81710800A17E0FFFD1718800726E0BFF61700BFB716000005060001883A2D
:20168800000003060001883A000001060001883AE0FFFF17E0BFF717188019260005303AC4
:20169000E0BFF915E0FFF91700BFFF841884703A1001703AE0BFF917E0BFFB15E0BFF8174F
:201698001080081710C00054E0BFF81710C00815E0BFF81710800017108001041007883A01
:2016A000E0BFF8171080081718800035E0BFFB17E0BFFA15E0BFFA171001703A0001883A73
:2016A800E0FFFF17E0BFF71718800426E0FFFF17E0BFF7171885C83A00000606E0BFF517C6
:2016B0001090000C1000022600BFFD440000010600BFFEC4E037883ADFC00117DF00001728
:2016B800DEC00204F800283ADEFFF304DFC00C15DF000B15DF000B04E13FF815E17FF715FA
:2016C000E1BFF615E1FFF515E03FFF15E0BFF717E0BFFD1500003706E0BFF81710800C1746
:2016C800E0BFFC15E0BFF81710800D17E0BFFF15E0FFFC17E0BFFF171880062EE0FFFF17D5
:2016D000E0BFFC171885C83A10BFFFC4E0BFFE1500000B06E0BFFF171000052600C200049E
:2016D800E0BFFC171885C83AE0BFFE150000040600C1FFC4E0BFFC171885C83AE0BFFE155E
:2016E000E0BFFE1710001E26E0FFF617E0BFFE171880022EE0BFF617E0BFFE15E0BFF8176E
:2016E80010C20E04E0BFFC171885883AE1BFFE17E17FF7171009883A00232900E0FFF717B6
:2016F000E0BFFE171885883AE0BFF715E0FFF617E0BFFE171885C83AE0BFF615E0FFFC1741
:2016F800E0BFFE171885883A10C1FFCCE0BFF81710C00C15E0BFF61700BFC7160000010635
:201700000001883A0005303AE0BFF915E0FFF91700BFFF841884703A1001703AE0BFF91709
:20170800E0BFFB15E0BFF8171080081710C00094E0BFF81710C00815E0BFF8171080001761
:20171000108001041007883AE0BFF8171080081718800035E0BFFB17E0BFFA15E0BFFA1712
:201718001001703A0001883AE0BFF6170080100EE0BFF5171090000C1000101E0001883A91
:20172000E0BFF81710800D17E0FFFF171880051EE0BFF81710C00917E0BFF81710800117A3
:2017280018BFF736E0BFF817108009171000051EE0BFF61700BFCF16000003060001883AF0
:20173000000001060001883AE0FFF717E0BFFD1718800426E0FFF717E0BFFD171885C83A2E
:2017380000000606E0BFF5171090000C1000022600BFFD440000010600BFFEC4E037883A95
:20174000DFC00117DF000017DEC00204F800283ADEFFF404DF000B15DF000B04E13FF815EF
:20174800E17FF715E1BFF615E1FFF515E0FFF517E0BFF6171885883AE0BFFC15E0C0021721
:20175000E08001171885883AE0BFFB15E0800117E0BFFF15E0BFF617E0BFFE1500800044A6
:20175800E0BFFD15E0BFF817108005041009883A00C00044E0BFF7171884983A20800035AA
:20176000E08003171080008C1000051EE0BFF817108003041007883A008100041880003530
:20176800E0BFF81710800037E0BFF8171080020410800037E0BFFA15E0BFFA171080100CD7
:2017700010000226E0BFFD171000031EE0BFFA171080200C103FF426E0BFFA171080100C0C
:2017780010001E26E0BFFD1700801C0EE0BFFD1710BFFFC4E0BFFD15E0FFF517E0BFFC170D
:2017800018800A2EE0BFF817108001041009883AE0BFF51710C00044E0FFF5151080000320
:2017880010803FCC2080003500000C06E0BFFF1710000826E0BFFF1710BFFFC4E0BFFF15D2
:20179000E0BFF817108001040007883A10C000350000020600BF0004E0BFFD15E0BFFA17FC
:201798001080200C103FD026E0BFF81710800037E0BFF915E0BFFE1710000426E0BFFE176C
:2017A00010BFFFC4E0BFFE1500000506E080021710C00044E0C00215E0FFF91710C00005D2
:2017A800E0BFFD1710800044E0BFFD15E0BFFE17103FBD1EE0C00217E0BFFB1718BFBA1EF2
:2017B000E0BFF8171080020410800037E0BFFA15E0BFFA171080080C103FF926E080031724
:2017B8001080004C1000041EE0BFF817108003040007883A10C00035E0800117E037883A9F
:2017C000DF000017DEC00104F800283ADEFFF504DF000A15DF000A04E13FF915E17FF815BA
:2017C800E1BFF715E1FFF615E03FFF15D0A6C11710003E26E0BFF91710003A26E0BFF917A7
:2017D000E0FFF71710C00315E0BFF917E0FFF61710C005150005303AE0BFFD15E0FFFD178C
:2017D80000BFFF841884703A1001703AE0BFFD17E0BFFE15D0A6C217E0BFFF15E0FFF81759
:2017E000E0BFFF171885883A10C00044E0BFF91710C00215E0BFF91710C00217E0BFFF17DE
:2017E8001880042EE0BFF91700C0004410C0040500000206E0BFF91710000405E0BFF9170C
:2017F000D0E01304E0FFFB15E0BFFA15E0BFFA17E0FFFB1710C00115E0BFFB1710C0001756
:2017F800E0BFFA1710C00015E0BFFB1710800017E0FFFA1710C00115E0BFFB17E0FFFA176D
:2018000010C000150001883AE0BFFE17E0BFFC15E0BFFC171001703A0001883A0005883AC5
:201808000000030600BFFA840000010600BFDE84E037883ADF000017DEC00104F800283A86
:20181000DEFFFA04DFC00515DF000415DF000404E13FFC1500800244E0BFFE15014003F464
:2018180029509004E13FFE1700219980100B883A01013174212D000400218D80100B883A53
:2018200001200034213FFFC400218D80100B883AE13FFC1700218D80E0BFFD15E0BFFD1760
:2018280010002A26E03FFF150000170600A0003410BFFFC410BFFFC4103FFE1E014003F455
:2018300029509004E13FFE1700219980100B883A01013174212D000400218D80100B883A3B
:2018380001200034213FFFC400218D801007883AE0BFFC1710C5C83AE0BFFC15E0BFFF1723
:2018400010800044E0BFFF15E0FFFF17E0BFFD1718BFE616014003F429509004E13FFE170C
:2018480000219980100B883A01013174212D000400218D80E17FFC171009883A00219980BA
:2018500010BFFFC4103FFE1E00000D06014003F429509004E13FFE1700219980100B883AD7
:2018580001013174212D000400218D80E17FFC171009883A0021998010BFFFC400BFFE165C
:201860000005883AE037883ADFC00117DF000017DEC00204F800283ADEFFFF04DF00001549
:20186800D839883A0001883AE037883ADF000017DEC00104F800283ADEFFFE04DFC001156A
:20187000DF000015D839883AD0A0101710000326D0A01017103EE83A00000106D0A6BB047E
:20187800E037883ADFC00117DF000017DEC00204F800283ADEFFFA04DFC00515DF00041540
:20188000DF000404E13FFD15E17FFC15E0BFFD1710000326E0BFFD17108002171000061E42
:2018880000261B801007883A008005841880001500BFFA8400001406E0BFFD17E0FFFC17F4
:20189000E0FFFF15E0BFFE15E0BFFE17E0FFFF1710C00115E0BFFF1710C00017E0BFFE17B4
:2018980010C00015E0BFFF1710800017E0FFFE1710C00115E0BFFF17E0FFFE1710C0001587
:2018A0000001883A0005883AE037883ADFC00117DF000017DEC00204F800283ADEFFFD043C
:2018A800DFC00215DF000115DF000104008000B4109BAC04E0BFFF1500000606E0BFFF178E
:2018B00010800017103EE83AE0BFFF1710BFFF04E0BFFF15E0FFFF17008000B4109BAB0444
:2018B80018BFF62E0001883A0001883AE037883ADFC00117DF000017DEC00204F800283A0B
:2018C000DEFFFD04DFC00215DF000115DF000104008000B4109BAE04E0BFFF15000006064B
:2018C800E0BFFF1710800017103EE83AE0BFFF1710BFFF04E0BFFF15E0FFFF17008000B4D1
:2018D000109BAD0418BFF62E0001883A0001883AE037883ADFC00117DF000017DEC00204F1
:2018D800F800283ADEFFFF04DF000015D839883A0001883AE037883ADF000017DEC00104BA
:2018E000F800283ADEFFFE04DF000115DF000104E13FFF15E0BFFF1710BFFE8410C00428A0
:2018E8001800191E100690BA008000B41885883A1098EE171000683A000263F8000263F885
:2018F000000264080002640800026408000263F80002640000026408000263F8000263F8A3
:2018F80000026408000263F8000264000002640800026408000263F8008000440000030699
:201900000005883A000001060005883AE037883ADF000017DEC00104F800283ADEFFF9048C
:20190800DFC00615DF000515DF000504E13FFE15E17FFD15E1BFFC15E1FFFB15E1BFFB172C
:20191000E17FFC17E13FFD1700266840E0BFFF15E0BFFF1710002016E0FFFF171805883AC0
:201918001085883A10C5883A100490BA00C000B410C7883A18DE2817E0BFFE1710C0001588
:20192000E0FFFF171805883A1085883A10C5883A100490BA00C000B410C7883A18DE291744
:20192800E0BFFE1710C00115E0FFFF171805883A1085883A10C5883A100490BA00C000B471
:2019300010C7883A18DE2A17E0BFFE1710C00215E13FFF170024F4800001883AE037883AC2
:20193800DFC00117DF000017DEC00204F800283ADEFFFB04DFC00415DF000315DF00030473
:20194000E13FFF15E17FFE15E1BFFD1501C07FC401800044E17FFF17010000B4211E2B04CC
:20194800002641C001C07FC4000D883AE17FFE17010000B4211E2804002641C001C07FC4C5
:2019500001800044E17FFD17010000B4211E2E04002641C00001883AE037883ADFC001179E
:20195800DF000017DEC00204F800283ADEFFFE04DFC00115DF000015D839883AD0A0101789
:2019600010000326D0A01017103EE83A00000106D0A6BB04E037883ADFC00117DF00001765
:20196800DEC00204F800283ADEFFFD04DF000215DF000204E13FFE15E0BFFE171080021718
:2019700010D00034E0BFFE1710C00215E03FFF1500002306E0FFFF171805883A1085883A21
:2019780010C5883A100490BA00C000B410C7883A18DE2817E0BFFE17108000171880151EF2
:20198000E0FFFF171805883A1085883A10C5883A100490BA00C000B410C7883A189E2A1723
:2019880010000C0EE0FFFF171805883A1085883A10C5883A100490BA00C000B418DE28045F
:2019900010C5883AE0FFFE171880022600BFFCC400000806E0BFFF1710800044E0BFFF1523
:20199800D0A00F171007883AE0BFFF1718BFD92E0005883AE037883ADF000017DEC00104F4
:2019A000F800283ADEFFF604DFC00915DF000815DF000804E13FFA15E17FF915E1BFF81508
:2019A80000BFFFC4E0BFFE1500BFFB44E0BFFD15E03FFC15D1600D04E13FFA1700269B4098
:2019B000E0BFFF15E0BFFF171000051EE13FFA170026A440E0BFFF1500800044E0BFFC151A
:2019B800E0BFFF1710002C26E13FFF170026B4C0E0BFFE15E0BFFE171000030EE0BFFE17ED
:2019C000E0BFFD1500002606E0FFFE171805883A1085883A10C5883A100490BA00C000B497
:2019C80018DE280410C5883AE0BFFB15E0FFF9170090003410BFFFC41886703AE0BFFB1759
:2019D00010C00215E0BFFC171000051EE13FFB1700265A80E0BFFD15E0BFFD17100010165F
:2019D800E0BFFF171080031710000826E0BFFF1710800317E1FFF817E1BFF917E17FFA17E3
:2019E000E13FFB17103EE83A000001060005883AE0BFFD150000020600BFFB44E0BFFD150F
:2019E800E0BFFD171000090EE13FFE170024F480002656C01007883AE0BFFD170085C83AE9
:2019F0001880001500BFFFC400000106E0BFFE17E037883ADFC00117DF000017DEC00204C3
:2019F800F800283ADEFFFA04DF000515DF000504E13FFB150005303AE0BFFC15E0FFFC1778
:201A000000BFFF841884703A1001703AE0BFFC17E0BFFF15E0BFFB17E0BFFD15E0BFFD1709
:201A080010800017E0FFFD1718C0011710C00115E0BFFD1710800117E0FFFD1718C0001711
:201A100010C00015E0BFFD17E0FFFD1710C00115E0BFFD17E0FFFD1710C000150001883AF7
:201A1800E0BFFF17E0BFFE15E0BFFE171001703A0001883A0001883AE037883ADF00001783
:201A2000DEC00104F800283ADEFFFB04DFC00415DF000315DF000304D0A01317E0BFFF15EB
:201A2800D0A6C21710800044D0A6C21500002E06E0BFFF1710800017E0BFFE15E0BFFF1737
:201A30001080040310803FCC10000426D0A6C2171000021EE0BFFF1710000405E0BFFF1728
:201A380010800217D0E6C21718801D36E0BFFF171080040310803FCC1000191EE0BFFF1788
:201A400010800317E0FFFF1718C005171809883A103EE83AE0BFFD15E0BFFD171000031E0B
